{
  "_format": "hh-sol-artifact-1",
  "contractName": "Counter",
  "sourceName": "contracts/Counter.sol",
  "abi": [
    {
      "inputs": [],
      "name": "count",
      "outputs": [],
      "stateMutability": "nonpayable",
      "type": "function"
    },
    {
      "inputs": [],
      "name": "getCounter",
      "outputs": [
        {
          "internalType": "uint32",
          "name": "",
          "type": "uint32"
        }
      ],
      "stateMutability": "view",
      "type": "function"
    }
  ],
  "bytecode": "0x608060405234801561001057600080fd5b506103d2806100206000396000f3fe608060405234801561001057600080fd5b50600436106100365760003560e01c806306661abd1461003b5780638ada066e14610045575b600080fd5b610043610063565b005b61004d6100fa565b60405161005a919061021e565b60405180910390f35b60008081819054906101000a900463ffffffff168092919061008490610268565b91906101000a81548163ffffffff021916908363ffffffff160217905550506100f86040518060400160405280600e81526020017f436f756e746572206973206e6f7700000000000000000000000000000000000081525060008054906101000a900463ffffffff1663ffffffff16610113565b565b60008060009054906101000a900463ffffffff16905090565b6101ab828260405160240161012992919061033d565b6040516020818303038152906040527fb60e72cc000000000000000000000000000000000000000000000000000000007bffffffffffffffffffffffffffffffffffffffffffffffffffffffff19166020820180517bffffffffffffffffffffffffffffffffffffffffffffffffffffffff83818316178352505050506101af565b5050565b6101c6816101be6101c96101ea565b63ffffffff16565b50565b60006a636f6e736f6c652e6c6f679050600080835160208501845afa505050565b6101f5819050919050565b6101fd61036d565b565b600063ffffffff82169050919050565b610218816101ff565b82525050565b6000602082019050610233600083018461020f565b92915050565b7f4e487b7100000000000000000000000000000000000000000000000000000000600052601160045260246000fd5b6000610273826101ff565b915063ffffffff820361028957610288610239565b5b600182019050919050565b600081519050919050565b600082825260208201905092915050565b60005b838110156102ce5780820151818401526020810190506102b3565b60008484015250505050565b6000601f19601f8301169050919050565b60006102f682610294565b610300818561029f565b93506103108185602086016102b0565b610319816102da565b840191505092915050565b6000819050919050565b61033781610324565b82525050565b6000604082019050818103600083015261035781856102eb565b9050610366602083018461032e565b9392505050565b7f4e487b7100000000000000000000000000000000000000000000000000000000600052605160045260246000fdfea2646970667358221220218c04cad6b687ae5467b36d8ad289342736173b57e8bb017869c8c00d50a20464736f6c63430008130033",
  "linkReferences": {},
  "deployedLinkReferences": {}
}