{
  "_format": "hh-sol-artifact-1",
  "contractName": "Counter",
  "sourceName": "contracts/Counter.sol",
  "abi": [
    {
      "anonymous": false,
      "inputs": [
        {
          "indexed": true,
          "internalType": "address",
          "name": "addr",
          "type": "address"
        },
        {
          "indexed": false,
          "internalType": "uint256",
          "name": "counter",
          "type": "uint256"
        }
      ],
      "name": "CounterInc",
      "type": "event"
    },
    {
      "inputs": [],
      "name": "count",
      "outputs": [],
      "stateMutability": "nonpayable",
      "type": "function"
    },
    {
      "inputs": [],
      "name": "getCounter",
      "outputs": [
        {
          "internalType": "uint32",
          "name": "",
          "type": "uint32"
        }
      ],
      "stateMutability": "view",
      "type": "function"
    }
  ],
  "bytecode": "0x608060405234801561001057600080fd5b50610486806100206000396000f3fe608060405234801561001057600080fd5b50600436106100365760003560e01c806306661abd1461003b5780638ada066e14610045575b600080fd5b610043610063565b005b61004d610158565b60405161005a919061027c565b60405180910390f35b60008081819054906101000a900463ffffffff1680929190610084906102c6565b91906101000a81548163ffffffff021916908363ffffffff160217905550506100f86040518060400160405280600e81526020017f436f756e746572206973206e6f7700000000000000000000000000000000000081525060008054906101000a900463ffffffff1663ffffffff16610171565b3373ffffffffffffffffffffffffffffffffffffffff167fd56f0db0741b2e26dfe0a24dff412ebc539f46848126eaa9034f3529f2d60c0360008054906101000a900463ffffffff1660405161014e9190610337565b60405180910390a2565b60008060009054906101000a900463ffffffff16905090565b61020982826040516024016101879291906103f1565b6040516020818303038152906040527fb60e72cc000000000000000000000000000000000000000000000000000000007bffffffffffffffffffffffffffffffffffffffffffffffffffffffff19166020820180517bffffffffffffffffffffffffffffffffffffffffffffffffffffffff838183161783525050505061020d565b5050565b6102248161021c610227610248565b63ffffffff16565b50565b60006a636f6e736f6c652e6c6f679050600080835160208501845afa505050565b610253819050919050565b61025b610421565b565b600063ffffffff82169050919050565b6102768161025d565b82525050565b6000602082019050610291600083018461026d565b92915050565b7f4e487b7100000000000000000000000000000000000000000000000000000000600052601160045260246000fd5b60006102d18261025d565b915063ffffffff82036102e7576102e6610297565b5b600182019050919050565b6000819050919050565b6000819050919050565b600061032161031c6103178461025d565b6102fc565b6102f2565b9050919050565b61033181610306565b82525050565b600060208201905061034c6000830184610328565b92915050565b600081519050919050565b600082825260208201905092915050565b60005b8381101561038c578082015181840152602081019050610371565b60008484015250505050565b6000601f19601f8301169050919050565b60006103b482610352565b6103be818561035d565b93506103ce81856020860161036e565b6103d781610398565b840191505092915050565b6103eb816102f2565b82525050565b6000604082019050818103600083015261040b81856103a9565b905061041a60208301846103e2565b9392505050565b7f4e487b7100000000000000000000000000000000000000000000000000000000600052605160045260246000fdfea2646970667358221220fb70c19dbb8c7da25d26ee3689326440802b51994fb522dbf6d83284400d2ee264736f6c63430008130033",
  "linkReferences": {},
  "deployedLinkReferences": {}
}