{
  "_format": "hh-sol-artifact-1",
  "contractName": "Hero",
  "sourceName": "contracts/Hero.sol",
  "abi": [
    {
      "inputs": [],
      "name": "createHero",
      "outputs": [],
      "stateMutability": "payable",
      "type": "function"
    },
    {
      "inputs": [],
      "name": "getHeroes",
      "outputs": [
        {
          "internalType": "uint256[]",
          "name": "",
          "type": "uint256[]"
        }
      ],
      "stateMutability": "view",
      "type": "function"
    }
  ],
  "bytecode": "0x608060405234801561001057600080fd5b506102e0806100206000396000f3fe6080604052600436106100295760003560e01c80639a8d28821461002e578063a80d3e6e14610059575b600080fd5b34801561003a57600080fd5b50610043610063565b604051610050919061020b565b60405180910390f35b6100616100f7565b005b60606000803373ffffffffffffffffffffffffffffffffffffffff1673ffffffffffffffffffffffffffffffffffffffff1681526020019081526020016000208054806020026020016040519081016040528092919081815260200182805480156100ed57602002820191906000526020600020905b8154815260200190600101908083116100d9575b5050505050905090565b66b1a2bc2ec50000341015610141576040517f08c379a00000000000000000000000000000000000000000000000000000000081526004016101389061028a565b60405180910390fd5b565b600081519050919050565b600082825260208201905092915050565b6000819050602082019050919050565b6000819050919050565b6101828161016f565b82525050565b60006101948383610179565b60208301905092915050565b6000602082019050919050565b60006101b882610143565b6101c2818561014e565b93506101cd8361015f565b8060005b838110156101fe5781516101e58882610188565b97506101f0836101a0565b9250506001810190506101d1565b5085935050505092915050565b6000602082019050818103600083015261022581846101ad565b905092915050565b600082825260208201905092915050565b7f506c656173652073656e64206d6f7265206d6f6e657900000000000000000000600082015250565b600061027460168361022d565b915061027f8261023e565b602082019050919050565b600060208201905081810360008301526102a381610267565b905091905056fea264697066735822122099942745675ebde9563d48fd895cf4c7f2abe9c1fa8e7b76e371a852ac31917664736f6c63430008130033",
  "linkReferences": {},
  "deployedLinkReferences": {}
}